:020000040000fa
:08000000820104000000000071
:020000040000fa
:040008007c01000077
:020000040000fa
:04000c007c01000073
:020000040000fa
:040010007c0100006f
:020000040000fa
:040014007c0100006b
:020000040000fa
:040018007c01000067
:020000040000fa
:04001c007c01000063
:020000040000fa
:040020007c0100005f
:020000040000fa
:040024007c0100005b
:020000040000fa
:040028007c01000057
:020000040000fa
:04002c007c01000053
:020000040000fa
:040030007c0100004f
:020000040000fa
:040034007c0100004b
:020000040000fa
:040038007c01000047
:020000040000fa
:04003c007c01000043
:020000040000fa
:040040007c0100003f
:020000040000fa
:040044007c0100003b
:020000040000fa
:040048007c01000037
:020000040000fa
:04004c00ee030000bf
:020000040000fa
:040050007c0100002f
:020000040000fa
:040054007c0100002b
:020000040000fa
:040058007c01000027
:020000040000fa
:04005c007c01000023
:020000040000fa
:040060007c0100001f
:020000040000fa
:040064007c0100001b
:020000040000fa
:040068007c01000017
:020000040000fa
:04006c007c01000013
:020000040000fa
:040070007c0100000f
:020000040000fa
:040074007c0100000b
:020000040000fa
:040078007c01000007
:020000040000fa
:04007c007c01000003
:020000040000fa
:040080007c010000ff
:020000040000fa
:040084007c010000fb
:020000040000fa
:040088007c010000f7
:020000040000fa
:04008c007c010000f3
:020000040000fa
:040090007c010000ef
:020000040000fa
:040094007c010000eb
:020000040000fa
:040098007c010000e7
:020000040000fa
:04009c007c010000e3
:020000040000fa
:0400a0007c010000df
:020000040000fa
:0400a4007c010000db
:020000040000fa
:0400a8007c010000d7
:020000040000fa
:0400ac007c010000d3
:020000040000fa
:0400b0007c010000cf
:020000040000fa
:0400b4007c010000cb
:020000040000fa
:0400b8007c010000c7
:020000040000fa
:0400bc007c010000c3
:020000040000fa
:0400c0007c010000bf
:020000040000fa
:0400c4007c010000bb
:020000040000fa
:0400c8007c010000b7
:020000040000fa
:0400cc007c010000b3
:020000040000fa
:0400d0007c010000af
:020000040000fa
:0400d4007c010000ab
:020000040000fa
:0400d8007c010000a7
:020000040000fa
:040108007c01000076
:020000040000fa
:04010c007c01000072
:020000040000fa
:040110007c0100006e
:020000040000fa
:040114007c0100006a
:020000040000fa
:040118007c01000066
:020000040000fa
:04011c007c01000062
:020000040000fa
:040120007c0100005e
:020000040000fa
:040124007c0100005a
:020000040000fa
:040128007c01000056
:020000040000fa
:04012c007c01000052
:020000040000fa
:040130007c0100004e
:020000040000fa
:040134007c0100004a
:020000040000fa
:040138007c01000046
:020000040000fa
:04013c007c01000042
:020000040000fa
:040140007c0100003e
:020000040000fa
:040144007c0100003a
:020000040000fa
:040148007c01000036
:020000040000fa
:04014c00ee030000be
:020000040000fa
:040150007c0100002e
:020000040000fa
:040154007c0100002a
:020000040000fa
:040158007c01000026
:020000040000fa
:04015c007c01000022
:020000040000fa
:040160007c0100001e
:020000040000fa
:040164007c0100001a
:020000040000fa
:040168007c01000016
:020000040000fa
:04016c007c01000012
:020000040000fa
:040170007c0100000e
:020000040000fa
:040174007c0100000a
:020000040000fa
:040178007c01000006
:020000040000fa
:04017c007c01000002
:020000040000fa
:040180007c010000fe
:020000040000fa
:040184007c010000fa
:020000040000fa
:040188007c010000f6
:020000040000fa
:04018c007c010000f2
:020000040000fa
:040190007c010000ee
:020000040000fa
:040194007c010000ea
:020000040000fa
:040198007c010000e6
:020000040000fa
:04019c007c010000e2
:020000040000fa
:0401a0007c010000de
:020000040000fa
:0401a4007c010000da
:020000040000fa
:0401a8007c010000d6
:020000040000fa
:0401ac007c010000d2
:020000040000fa
:0401b0007c010000ce
:020000040000fa
:0401b4007c010000ca
:020000040000fa
:0401b8007c010000c6
:020000040000fa
:0401bc007c010000c2
:020000040000fa
:0401c0007c010000be
:020000040000fa
:0401c4007c010000ba
:020000040000fa
:0401c8007c010000b6
:020000040000fa
:0401cc007c010000b2
:020000040000fa
:0401d0007c010000ae
:020000040000fa
:0401d4007c010000aa
:020000040000fa
:0401d8007c010000a6
:020000040000fa
:100200008a1f78008b1f780000000600910188008b
:10021000800478000000eb001a003700e2844400fc
:1002200032a0b4009905ba00e284440032a0b400c0
:100230009906ba00e284440032a0b4000006eb0044
:10024000476fde00fd07b200636ce10003003a0077
:10025000ebff07000000eb000a003700606ce100d4
:1002600004003a00005deb008b05e900fdff3e0055
:10027000040037006168e100010032000086eb00f5
:100280000b00070019c7ba001905ba000e04e000f8
:1002900003003a000a00e000e0ff3a000000060018
:1002a000fe07b2009e0188008a047800f5ff37003f
:1002b000395dba008b05e9000c003200295dba00f7
:1002c0008b05e900080032000c00e00003003a0052
:1002d000e284440032a0b400f5ff370019ddba0013
:1002e0008b05e900faff3a008904e800e184440044
:1002f00032a0b400000006000040da000000fe005a
:0403000000000500f4
:020000040000fa
:100304000fc8200000ff200000018800000000004a
:10031400cc01020000000000920302000000000073
:10032400d2030200000000008006eb000000000081
:10033400feff37008d0278000500e000a6003200c1
:100344006128e100960032006228e1008600320054
:100354006328e100760032006428e1006600320080
:100364006528e100560032006628e10046003200ac
:100374006728e100360032006828e10026003200d8
:100384006928e100160032006a28e1000700320003
:10039400000006000000eb00000778000c000900d4
:1003a400002f78000007eb0000000600d422ef00c5
:1003b400d4a2ee002c030200000000002c03020073
:1003c400000000002c030200000000002c030200c7
:1003d40000000000d422ef003d01200000000600d0
:1003e400801f7800800c200004020200000000003e
:1003f4000000e900fcff3a004f0078003d012000b6
:10040400ccff3700c8a2ee00e22d20005203020008
:100414000000000000000600801f7800800c20000f
:1004240020020200000000000000e900fcff3a0086
:100434004f0078003d012000beff3700c8a2ee0047
:10044400722b20005203020000000000000006008e
:10045400801f7800800c20003c0202000000000095
:100464000000e900fcff3a004f0078003d01200045
:10047400b0ff3700c8a2ee00722b20005203020026
:100484000000000000000600801f7800800c20009f
:1004940058020200000000000000e900fcff3a00de
:1004a4004f0078003d012000a2ff3700c8a2ee00f3
:1004b4005226200052030200000000000000060043
:1004c400801f7800800c20007402020000000000ed
:1004d4000000e900fcff3a004f0078003d012000d5
:1004e40094ff3700c8a2ee00c2232000520302008a
:1004f4000000000000000600801f7800800c20002f
:1005040090020200000000000000e900fcff3a0035
:100514004f0078003d01200086ff3700c8a2ee009e
:1005240032212000520302000000000000000600f7
:10053400801f7800800c2000ac0202000000000044
:100544000000e900fcff3a004f0078003d01200064
:1005540078ff3700c8a2ee00a21e2000520302005a
:100564000000000000000600801f7800800c2000be
:10057400c8020200000000000000e900fcff3a008d
:100584004f0078003d0120006aff3700c8a2ee004a
:10059400121c2000520302000000000000000600ac
:1005a400801f7800800c2000e4020200000000009c
:1005b4000000e900fcff3a004f0078003d012000f4
:1005c4005cff3700c8a2ee0082192000520302002b
:1005d4000000000000000600801f7800800c20004e
:1005e40000030200000000000000e900fcff3a00e4
:1005f4004f0078003d0120004eff3700c8a2ee00f6
:10060400f216200052030200000000000000060061
:100614008d06e8002c030200000000000000060024
:10062400861f78000603b100860678002c030200ba
:10063400000000004f03780000000600c8a2ee008e
:100644004203020000000000420302000000000018
:1006540000000600801f7800811f7800a1002000a0
:100664000000eb000000e900feff3a008100e90011
:10067400fbff3a00cf0078004f007800000006002e
:10068400811f7800f11620008100e90000000000bd
:1006940000000000fcff3a00cf00780000000600d4
:1006a400821f78000201e900000000000000000041
:1006b400fcff3a004f01780000000600811f78001b
:1006c400612220008100e900000000000000000019
:1006d400fcff3a00cf00780000000600801f78007d
:1006e400811f7800310020000000eb000000e900c9
:1006f400feff3a008100e900fbff3a00cf007800da
:100704004f00780000000600801f7800904022000f
:100714000000e900feff3a004f00780000000600e8
:10072400c222ef0000000000c422ef00000000001d
:10073400c0a2ef0000000000c822ef00000000008b
:10074400ca22ef0000000000c622ef0000000000f3
:10075400a8a2ef00ce22ef0000000000d022ef009c
:1007640000000000cca2ef0000000000d422ef0043
:1007740000000000d622ef0000000000d222ef00ab
:1007840000000000e022ef0000000000e222ef0081
:1007940000000000dea2ef000000000000000600e0
:1007a400b0002000a01088009940a8009920a9005a
:1007b4009900a90098c0a80098a0a9009880a90051
:1007c4000e22ef0000802800601088000f42a8006d
:1007d4008d20a8000000060096108000120302007d
:1007e400000000009c010200000000008610880048
:0c07f4001222ef008520a9000040060042
:020000040000fa
:10080000040800008000000000000000000c000050
:10081000800000000000000000080000040000004c
:080820000000000000000000d0
:020000040000fa
:100828000200000003000000050000000a000000ac
:00000001FF
